:1000000012C02CC02CC02AC029C028C052C026C093
:1000100025C024C023C022C021C020C01FC01EC0D4
:100020001DC01CC01BC011241FBECFE5D2E0DEBF27
:10003000CDBF10E0A0E6B0E0EEEEF4E002C0059027
:100040000D92A237B107D9F720E0A2E7B0E001C0D6
:100050001D92A139B207E1F7B5D147C2D1CF1F92A6
:100060000F920FB60F9211242F933F934F935F93EC
:100070006F937F938F939F93AF93BF93EF93FF9370
:100080008BB78F7D8BBF8EEF84BB8FE682BF8AD10B
:10009000FF91EF91BF91AF919F918F917F916F9160
:1000A0005F914F913F912F910F900FBE0F901F9036
:1000B00018951F920F920FB60F9211242F933F9312
:1000C0004F935F936F937F938F939F93AF93BF9360
:1000D000EF93FF938CEF84BB8FED82BFF9D08091BB
:1000E000890090918A00019690938A0080938900FC
:1000F000FF91EF91BF91AF919F918F917F916F9100
:100100005F914F913F912F910F900FBE0F901F90D5
:10011000189588E487BB87E08ABB18BAD49AC69A38
:100120001BBA8BB382638BBB8CEF84BB8FED82BF1A
:1001300080E885BB91E093BF92E099BF88BD18BC71
:10014000A8D012BC8DE881BF10928E0080E283BDE2
:10015000089580918B008F5F80938B0080918B003E
:100160008C3320F010928B0080E0089581E0089598
:10017000809188008F5F80938800809188008A300A
:1001800010F481E0089510928800809183008F5FC1
:100190008093830080918300863098F310928300CF
:1001A00080E0089580918D00833039F4809187003C
:1001B000823019F4109287000EC080918D008F5FFD
:1001C00080938D0080918D008A3048F08091870067
:1001D0008F5F8093870010928D0080E0089581E00A
:1001E0000895B7DF811104C0C3DF811101C0DACFE8
:1001F0000895882311F0D89A01C0D898DA98DA9A2D
:100200000895EF92FF920F931F93CF93DF93C62F22
:10021000D0E000E010E07E01E81AF10881E0E81A81
:10022000F1080C171D0749F081E0E016F10609F00E
:1002300080E0DFDF0F5F1F4FF4CFDF91CF911F9181
:100240000F91FF90EF9008951F93CF93DF93162F98
:10025000D42FC22FE82FF0E0EF59FF4F66E08081E6
:10026000D0DFE12FF0E0E959FF4F6AE08081C9DF7C
:10027000ED2FF0E0EF59FF4F66E08081C2DFEC2FF9
:10028000F0E0E959FF4F6AE08081DF91CF911F9143
:10029000B8CFDC9A109282001092810010928000F8
:1002A000089521E030E03093820020938100880F90
:1002B000990B925F9093900080938F000895209106
:1002C00081003091820081E0232B09F480E00895C1
:1002D0008091810090918200892B69F18091840046
:1002E0008F5F80938400813031F5109284002091DB
:1002F00081003091820080918F0090919000822344
:100300009323892B11F0DC9A01C0DC988091810045
:1003100090918200880F991F9093820080938100B2
:1003200080918100909182008115984021F4109273
:1003300082001092810080917E0090917F00892B35
:1003400081F1CD9B0EC020917E0030917F00809185
:10035000850090918600822B932B9093860080934A
:10036000850080917E0090917F00880F991F909367
:100370007F0080937E0080917E0090917F008115A8
:10038000944079F4809185009091860096958795A8
:100390008093800010927F0010927E008BB7806265
:1003A0008BBF089581E090E090937F0080937E0062
:1003B000109286001092850008958091800010921E
:1003C00080000895A6DE7894C4E7D0E000E41AE047
:1003D000FF24F39480E2E82E80918E00882309F4B4
:1003E00044C0EBDF80936000882309F43EC08A326A
:1003F00029F4D0937300C093720037C08432E1F4C3
:1004000080917200909173008857904071F58091AF
:10041000740080538093870080917500805380938F
:100420008D008091760080538093830080917700C7
:1004300080538093880019C0282F30E02053310961
:100440002A30310590F4E0917200F09173009F0121
:10045000245730402A30310544F49F012F5F3F4F2D
:100460003093730020937200808380918900909173
:100470008A008038954208F4AFCF10928A0010921B
:10048000890088B3802788BB80918E00811117C0B6
:1004900080918C008F5F80938C0080918C008E31D6
:1004A00019F4F0928E00EBBE80918C00612F11D078
:1004B0008093830080918C000CD0909388002091D1
:1004C00088004091830060918D0080918700BCDEA0
:1004D00083CF991B79E004C0991F961708F0961BEB
:0E04E000881F7A95C9F780950895F894FFCF8C
:1004EE0020040502030100060400010203050709AA
:0204FE000800F4
:00000001FF
